{
  "_format": "hh-sol-artifact-1",
  "contractName": "MyEpicGame",
  "sourceName": "contracts/MyEpicGame.sol",
  "abi": [
    {
      "inputs": [
        {
          "internalType": "string[]",
          "name": "characterNames",
          "type": "string[]"
        },
        {
          "internalType": "string[]",
          "name": "characterImageURIs",
          "type": "string[]"
        },
        {
          "internalType": "uint256[]",
          "name": "characterHp",
          "type": "uint256[]"
        },
        {
          "internalType": "uint256[]",
          "name": "characterAttackDmg",
          "type": "uint256[]"
        },
        {
          "internalType": "string",
          "name": "bossName",
          "type": "string"
        },
        {
          "internalType": "string",
          "name": "bossImageURI",
          "type": "string"
        },
        {
          "internalType": "uint256",
          "name": "bossHp",
          "type": "uint256"
        },
        {
          "internalType": "uint256",
          "name": "bossAttackDamage",
          "type": "uint256"
        }
      ],
      "stateMutability": "nonpayable",
      "type": "constructor"
    },
    {
      "anonymous": false,
      "inputs": [
        {
          "indexed": true,
          "internalType": "address",
          "name": "owner",
          "type": "address"
        },
        {
          "indexed": true,
          "internalType": "address",
          "name": "approved",
          "type": "address"
        },
        {
          "indexed": true,
          "internalType": "uint256",
          "name": "tokenId",
          "type": "uint256"
        }
      ],
      "name": "Approval",
      "type": "event"
    },
    {
      "anonymous": false,
      "inputs": [
        {
          "indexed": true,
          "internalType": "address",
          "name": "owner",
          "type": "address"
        },
        {
          "indexed": true,
          "internalType": "address",
          "name": "operator",
          "type": "address"
        },
        {
          "indexed": false,
          "internalType": "bool",
          "name": "approved",
          "type": "bool"
        }
      ],
      "name": "ApprovalForAll",
      "type": "event"
    },
    {
      "anonymous": false,
      "inputs": [
        {
          "indexed": true,
          "internalType": "address",
          "name": "from",
          "type": "address"
        },
        {
          "indexed": true,
          "internalType": "address",
          "name": "to",
          "type": "address"
        },
        {
          "indexed": true,
          "internalType": "uint256",
          "name": "tokenId",
          "type": "uint256"
        }
      ],
      "name": "Transfer",
      "type": "event"
    },
    {
      "inputs": [
        {
          "internalType": "address",
          "name": "to",
          "type": "address"
        },
        {
          "internalType": "uint256",
          "name": "tokenId",
          "type": "uint256"
        }
      ],
      "name": "approve",
      "outputs": [],
      "stateMutability": "nonpayable",
      "type": "function"
    },
    {
      "inputs": [],
      "name": "attackBoss",
      "outputs": [],
      "stateMutability": "nonpayable",
      "type": "function"
    },
    {
      "inputs": [
        {
          "internalType": "address",
          "name": "owner",
          "type": "address"
        }
      ],
      "name": "balanceOf",
      "outputs": [
        {
          "internalType": "uint256",
          "name": "",
          "type": "uint256"
        }
      ],
      "stateMutability": "view",
      "type": "function"
    },
    {
      "inputs": [],
      "name": "bigBoss",
      "outputs": [
        {
          "internalType": "string",
          "name": "name",
          "type": "string"
        },
        {
          "internalType": "string",
          "name": "imageURI",
          "type": "string"
        },
        {
          "internalType": "uint256",
          "name": "hp",
          "type": "uint256"
        },
        {
          "internalType": "uint256",
          "name": "maxHp",
          "type": "uint256"
        },
        {
          "internalType": "uint256",
          "name": "attackDamage",
          "type": "uint256"
        }
      ],
      "stateMutability": "view",
      "type": "function"
    },
    {
      "inputs": [
        {
          "internalType": "uint256",
          "name": "tokenId",
          "type": "uint256"
        }
      ],
      "name": "getApproved",
      "outputs": [
        {
          "internalType": "address",
          "name": "",
          "type": "address"
        }
      ],
      "stateMutability": "view",
      "type": "function"
    },
    {
      "inputs": [
        {
          "internalType": "address",
          "name": "owner",
          "type": "address"
        },
        {
          "internalType": "address",
          "name": "operator",
          "type": "address"
        }
      ],
      "name": "isApprovedForAll",
      "outputs": [
        {
          "internalType": "bool",
          "name": "",
          "type": "bool"
        }
      ],
      "stateMutability": "view",
      "type": "function"
    },
    {
      "inputs": [
        {
          "internalType": "uint256",
          "name": "_characterIndex",
          "type": "uint256"
        }
      ],
      "name": "mintCharacterNFT",
      "outputs": [],
      "stateMutability": "nonpayable",
      "type": "function"
    },
    {
      "inputs": [],
      "name": "name",
      "outputs": [
        {
          "internalType": "string",
          "name": "",
          "type": "string"
        }
      ],
      "stateMutability": "view",
      "type": "function"
    },
    {
      "inputs": [
        {
          "internalType": "uint256",
          "name": "",
          "type": "uint256"
        }
      ],
      "name": "nftHolderAttributes",
      "outputs": [
        {
          "internalType": "uint256",
          "name": "characterIndex",
          "type": "uint256"
        },
        {
          "internalType": "string",
          "name": "name",
          "type": "string"
        },
        {
          "internalType": "string",
          "name": "imageURI",
          "type": "string"
        },
        {
          "internalType": "uint256",
          "name": "hp",
          "type": "uint256"
        },
        {
          "internalType": "uint256",
          "name": "maxHp",
          "type": "uint256"
        },
        {
          "internalType": "uint256",
          "name": "attackDamage",
          "type": "uint256"
        }
      ],
      "stateMutability": "view",
      "type": "function"
    },
    {
      "inputs": [
        {
          "internalType": "address",
          "name": "",
          "type": "address"
        }
      ],
      "name": "nftHolders",
      "outputs": [
        {
          "internalType": "uint256",
          "name": "",
          "type": "uint256"
        }
      ],
      "stateMutability": "view",
      "type": "function"
    },
    {
      "inputs": [
        {
          "internalType": "uint256",
          "name": "tokenId",
          "type": "uint256"
        }
      ],
      "name": "ownerOf",
      "outputs": [
        {
          "internalType": "address",
          "name": "",
          "type": "address"
        }
      ],
      "stateMutability": "view",
      "type": "function"
    },
    {
      "inputs": [
        {
          "internalType": "address",
          "name": "from",
          "type": "address"
        },
        {
          "internalType": "address",
          "name": "to",
          "type": "address"
        },
        {
          "internalType": "uint256",
          "name": "tokenId",
          "type": "uint256"
        }
      ],
      "name": "safeTransferFrom",
      "outputs": [],
      "stateMutability": "nonpayable",
      "type": "function"
    },
    {
      "inputs": [
        {
          "internalType": "address",
          "name": "from",
          "type": "address"
        },
        {
          "internalType": "address",
          "name": "to",
          "type": "address"
        },
        {
          "internalType": "uint256",
          "name": "tokenId",
          "type": "uint256"
        },
        {
          "internalType": "bytes",
          "name": "_data",
          "type": "bytes"
        }
      ],
      "name": "safeTransferFrom",
      "outputs": [],
      "stateMutability": "nonpayable",
      "type": "function"
    },
    {
      "inputs": [
        {
          "internalType": "address",
          "name": "operator",
          "type": "address"
        },
        {
          "internalType": "bool",
          "name": "approved",
          "type": "bool"
        }
      ],
      "name": "setApprovalForAll",
      "outputs": [],
      "stateMutability": "nonpayable",
      "type": "function"
    },
    {
      "inputs": [
        {
          "internalType": "bytes4",
          "name": "interfaceId",
          "type": "bytes4"
        }
      ],
      "name": "supportsInterface",
      "outputs": [
        {
          "internalType": "bool",
          "name": "",
          "type": "bool"
        }
      ],
      "stateMutability": "view",
      "type": "function"
    },
    {
      "inputs": [],
      "name": "symbol",
      "outputs": [
        {
          "internalType": "string",
          "name": "",
          "type": "string"
        }
      ],
      "stateMutability": "view",
      "type": "function"
    },
    {
      "inputs": [
        {
          "internalType": "uint256",
          "name": "_tokenId",
          "type": "uint256"
        }
      ],
      "name": "tokenURI",
      "outputs": [
        {
          "internalType": "string",
          "name": "",
          "type": "string"
        }
      ],
      "stateMutability": "view",
      "type": "function"
    },
    {
      "inputs": [
        {
          "internalType": "address",
          "name": "from",
          "type": "address"
        },
        {
          "internalType": "address",
          "name": "to",
          "type": "address"
        },
        {
          "internalType": "uint256",
          "name": "tokenId",
          "type": "uint256"
        }
      ],
      "name": "transferFrom",
      "outputs": [],
      "stateMutability": "nonpayable",
      "type": "function"
    }
  ],
  "bytecode": "0x60806040523480156200001157600080fd5b5060405162004d1738038062004d17833981810160405281019062000037919062000a5a565b6040518060400160405280600681526020017f4865726f657300000000000000000000000000000000000000000000000000008152506040518060400160405280600481526020017f4845524f000000000000000000000000000000000000000000000000000000008152508160009080519060200190620000bb929190620007ed565b508060019080519060200190620000d4929190620007ed565b5050506040518060a0016040528085815260200184815260200183815260200183815260200182815250600a60008201518160000190805190602001906200011e929190620007ed565b5060208201518160010190805190602001906200013d929190620007ed565b50604082015181600201556060820151816003015560808201518160040155905050620002c06040518060600160405280602a815260200162004ced602a9139600a60000180546200018f9062000de5565b80601f0160208091040260200160405190810160405280929190818152602001828054620001bd9062000de5565b80156200020e5780601f10620001e2576101008083540402835291602001916200020e565b820191906000526020600020905b815481529060010190602001808311620001f057829003601f168201915b5050505050600a60020154600a60010180546200022b9062000de5565b80601f0160208091040260200160405190810160405280929190818152602001828054620002599062000de5565b8015620002aa5780601f106200027e57610100808354040283529160200191620002aa565b820191906000526020600020905b8154815290600101906020018083116200028c57829003601f168201915b50505050506200070260201b620017421760201c565b60005b8851811015620006dc5760076040518060c001604052808381526020018b84815181106200031a577f4e487b7100000000000000000000000000000000000000000000000000000000600052603260045260246000fd5b602002602001015181526020018a848151811062000361577f4e487b7100000000000000000000000000000000000000000000000000000000600052603260045260246000fd5b60200260200101518152602001898481518110620003a8577f4e487b7100000000000000000000000000000000000000000000000000000000600052603260045260246000fd5b60200260200101518152602001898481518110620003ef577f4e487b7100000000000000000000000000000000000000000000000000000000600052603260045260246000fd5b6020026020010151815260200188848151811062000436577f4e487b7100000000000000000000000000000000000000000000000000000000600052603260045260246000fd5b6020026020010151815250908060018154018082558091505060019003906000526020600020906006020160009091909190915060008201518160000155602082015181600101908051906020019062000492929190620007ed565b506040820151816002019080519060200190620004b1929190620007ed565b50606082015181600301556080820151816004015560a0820151816005015550506000600782815481106200050f577f4e487b7100000000000000000000000000000000000000000000000000000000600052603260045260246000fd5b90600052602060002090600602016040518060c001604052908160008201548152602001600182018054620005449062000de5565b80601f0160208091040260200160405190810160405280929190818152602001828054620005729062000de5565b8015620005c35780601f106200059757610100808354040283529160200191620005c3565b820191906000526020600020905b815481529060010190602001808311620005a557829003601f168201915b50505050508152602001600282018054620005de9062000de5565b80601f01602080910402602001604051908101604052809291908181526020018280546200060c9062000de5565b80156200065d5780601f1062000631576101008083540402835291602001916200065d565b820191906000526020600020905b8154815290600101906020018083116200063f57829003601f168201915b5050505050815260200160038201548152602001600482015481526020016005820154815250509050620006c460405180606001604052806025815260200162004cc8602591398260200151836060015184604001516200070260201b620017421760201c565b50600181620006d4919062000d48565b9050620002c3565b50620006f46006620007ae60201b620017e41760201c565b505050505050505062000ed3565b620007a8848484846040516024016200071f949392919062000c05565b6040516020818303038152906040527f8d142cdd000000000000000000000000000000000000000000000000000000007bffffffffffffffffffffffffffffffffffffffffffffffffffffffff19166020820180517bffffffffffffffffffffffffffffffffffffffffffffffffffffffff8381831617835250505050620007c460201b60201c565b50505050565b6001816000016000828254019250508190555050565b60008151905060006a636f6e736f6c652e6c6f679050602083016000808483855afa5050505050565b828054620007fb9062000de5565b90600052602060002090601f0160209004810192826200081f57600085556200086b565b82601f106200083a57805160ff19168380011785556200086b565b828001600101855582156200086b579182015b828111156200086a5782518255916020019190600101906200084d565b5b5090506200087a91906200087e565b5090565b5b80821115620008995760008160009055506001016200087f565b5090565b6000620008b4620008ae8462000c9b565b62000c67565b9050808382526020820190508260005b85811015620008f85781518501620008dd888262000a16565b845260208401935060208301925050600181019050620008c4565b5050509392505050565b600062000919620009138462000cca565b62000c67565b905080838252602082019050828560208602820111156200093957600080fd5b60005b858110156200096d578162000952888262000a43565b8452602084019350602083019250506001810190506200093c565b5050509392505050565b60006200098e620009888462000cf9565b62000c67565b905082815260208101848484011115620009a757600080fd5b620009b484828562000daf565b509392505050565b600082601f830112620009ce57600080fd5b8151620009e08482602086016200089d565b91505092915050565b600082601f830112620009fb57600080fd5b815162000a0d84826020860162000902565b91505092915050565b600082601f83011262000a2857600080fd5b815162000a3a84826020860162000977565b91505092915050565b60008151905062000a548162000eb9565b92915050565b600080600080600080600080610100898b03121562000a7857600080fd5b600089015167ffffffffffffffff81111562000a9357600080fd5b62000aa18b828c01620009bc565b985050602089015167ffffffffffffffff81111562000abf57600080fd5b62000acd8b828c01620009bc565b975050604089015167ffffffffffffffff81111562000aeb57600080fd5b62000af98b828c01620009e9565b965050606089015167ffffffffffffffff81111562000b1757600080fd5b62000b258b828c01620009e9565b955050608089015167ffffffffffffffff81111562000b4357600080fd5b62000b518b828c0162000a16565b94505060a089015167ffffffffffffffff81111562000b6f57600080fd5b62000b7d8b828c0162000a16565b93505060c062000b908b828c0162000a43565b92505060e062000ba38b828c0162000a43565b9150509295985092959890939650565b600062000bc08262000d2c565b62000bcc818562000d37565b935062000bde81856020860162000daf565b62000be98162000ea8565b840191505092915050565b62000bff8162000da5565b82525050565b6000608082019050818103600083015262000c21818762000bb3565b9050818103602083015262000c37818662000bb3565b905062000c48604083018562000bf4565b818103606083015262000c5c818462000bb3565b905095945050505050565b6000604051905081810181811067ffffffffffffffff8211171562000c915762000c9062000e79565b5b8060405250919050565b600067ffffffffffffffff82111562000cb95762000cb862000e79565b5b602082029050602081019050919050565b600067ffffffffffffffff82111562000ce85762000ce762000e79565b5b602082029050602081019050919050565b600067ffffffffffffffff82111562000d175762000d1662000e79565b5b601f19601f8301169050602081019050919050565b600081519050919050565b600082825260208201905092915050565b600062000d558262000da5565b915062000d628362000da5565b9250827fffffffffffffffffffffffffffffffffffffffffffffffffffffffffffffffff0382111562000d9a5762000d9962000e1b565b5b828201905092915050565b6000819050919050565b60005b8381101562000dcf57808201518184015260208101905062000db2565b8381111562000ddf576000848401525b50505050565b6000600282049050600182168062000dfe57607f821691505b6020821081141562000e155762000e1462000e4a565b5b50919050565b7f4e487b7100000000000000000000000000000000000000000000000000000000600052601160045260246000fd5b7f4e487b7100000000000000000000000000000000000000000000000000000000600052602260045260246000fd5b7f4e487b7100000000000000000000000000000000000000000000000000000000600052604160045260246000fd5b6000601f19601f8301169050919050565b62000ec48162000da5565b811462000ed057600080fd5b50565b613de58062000ee36000396000f3fe608060405234801561001057600080fd5b50600436106101165760003560e01c806395d89b41116100a2578063b88d4fde11610071578063b88d4fde1461030e578063c87b56dd1461032a578063d4f24c5b1461035a578063e985e9c514610364578063f8b81ef71461039457610116565b806395d89b411461027d57806398da4c951461029b578063a22cb465146102d0578063a9c32679146102ec57610116565b806323b872dd116100e957806323b872dd146101b557806342842e0e146101d15780636352211e146101ed57806370a082311461021d5780637df124a11461024d57610116565b806301ffc9a71461011b57806306fdde031461014b578063081812fc14610169578063095ea7b314610199575b600080fd5b610135600480360381019061013091906129b7565b6103b0565b6040516101429190613476565b60405180910390f35b610153610492565b6040516101609190613491565b60405180910390f35b610183600480360381019061017e9190612a09565b610524565b604051610190919061340f565b60405180910390f35b6101b360048036038101906101ae919061297b565b6105a9565b005b6101cf60048036038101906101ca9190612875565b6106c1565b005b6101eb60048036038101906101e69190612875565b610721565b005b61020760048036038101906102029190612a09565b610741565b604051610214919061340f565b60405180910390f35b61023760048036038101906102329190612810565b6107f3565b604051610244919061380f565b60405180910390f35b61026760048036038101906102629190612810565b6108ab565b604051610274919061380f565b60405180910390f35b6102856108c3565b6040516102929190613491565b60405180910390f35b6102b560048036038101906102b09190612a09565b610955565b6040516102c79695949392919061382a565b60405180910390f35b6102ea60048036038101906102e5919061293f565b610aa1565b005b6102f4610c22565b604051610305959493929190613560565b60405180910390f35b610328600480360381019061032391906128c4565b610d56565b005b610344600480360381019061033f9190612a09565b610db8565b6040516103519190613491565b60405180910390f35b610362610fd3565b005b61037e60048036038101906103799190612839565b6112f5565b60405161038b9190613476565b60405180910390f35b6103ae60048036038101906103a99190612a09565b611389565b005b60007f80ac58cd000000000000000000000000000000000000000000000000000000007bffffffffffffffffffffffffffffffffffffffffffffffffffffffff1916827bffffffffffffffffffffffffffffffffffffffffffffffffffffffff1916148061047b57507f5b5e139f000000000000000000000000000000000000000000000000000000007bffffffffffffffffffffffffffffffffffffffffffffffffffffffff1916827bffffffffffffffffffffffffffffffffffffffffffffffffffffffff1916145b8061048b575061048a826117fa565b5b9050919050565b6060600080546104a190613b08565b80601f01602080910402602001604051908101604052809291908181526020018280546104cd90613b08565b801561051a5780601f106104ef5761010080835404028352916020019161051a565b820191906000526020600020905b8154815290600101906020018083116104fd57829003601f168201915b5050505050905090565b600061052f82611864565b61056e576040517f08c379a00000000000000000000000000000000000000000000000000000000081526004016105659061378f565b60405180910390fd5b6004600083815260200190815260200160002060009054906101000a900473ffffffffffffffffffffffffffffffffffffffff169050919050565b60006105b482610741565b90508073ffffffffffffffffffffffffffffffffffffffff168373ffffffffffffffffffffffffffffffffffffffff161415610625576040517f08c379a000000000000000000000000000000000000000000000000000000000815260040161061c906137cf565b60405180910390fd5b8073ffffffffffffffffffffffffffffffffffffffff166106446118d0565b73ffffffffffffffffffffffffffffffffffffffff16148061067357506106728161066d6118d0565b6112f5565b5b6106b2576040517f08c379a00000000000000000000000000000000000000000000000000000000081526004016106a9906136ef565b60405180910390fd5b6106bc83836118d8565b505050565b6106d26106cc6118d0565b82611991565b610711576040517f08c379a0000000000000000000000000000000000000000000000000000000008152600401610708906137ef565b60405180910390fd5b61071c838383611a6f565b505050565b61073c83838360405180602001604052806000815250610d56565b505050565b6000806002600084815260200190815260200160002060009054906101000a900473ffffffffffffffffffffffffffffffffffffffff169050600073ffffffffffffffffffffffffffffffffffffffff168173ffffffffffffffffffffffffffffffffffffffff1614156107ea576040517f08c379a00000000000000000000000000000000000000000000000000000000081526004016107e19061372f565b60405180910390fd5b80915050919050565b60008073ffffffffffffffffffffffffffffffffffffffff168273ffffffffffffffffffffffffffffffffffffffff161415610864576040517f08c379a000000000000000000000000000000000000000000000000000000000815260040161085b9061370f565b60405180910390fd5b600360008373ffffffffffffffffffffffffffffffffffffffff1673ffffffffffffffffffffffffffffffffffffffff168152602001908152602001600020549050919050565b60096020528060005260406000206000915090505481565b6060600180546108d290613b08565b80601f01602080910402602001604051908101604052809291908181526020018280546108fe90613b08565b801561094b5780601f106109205761010080835404028352916020019161094b565b820191906000526020600020905b81548152906001019060200180831161092e57829003601f168201915b5050505050905090565b600860205280600052604060002060009150905080600001549080600101805461097e90613b08565b80601f01602080910402602001604051908101604052809291908181526020018280546109aa90613b08565b80156109f75780601f106109cc576101008083540402835291602001916109f7565b820191906000526020600020905b8154815290600101906020018083116109da57829003601f168201915b505050505090806002018054610a0c90613b08565b80601f0160208091040260200160405190810160405280929190818152602001828054610a3890613b08565b8015610a855780601f10610a5a57610100808354040283529160200191610a85565b820191906000526020600020905b815481529060010190602001808311610a6857829003601f168201915b5050505050908060030154908060040154908060050154905086565b610aa96118d0565b73ffffffffffffffffffffffffffffffffffffffff168273ffffffffffffffffffffffffffffffffffffffff161415610b17576040517f08c379a0000000000000000000000000000000000000000000000000000000008152600401610b0e906136af565b60405180910390fd5b8060056000610b246118d0565b73ffffffffffffffffffffffffffffffffffffffff1673ffffffffffffffffffffffffffffffffffffffff16815260200190815260200160002060008473ffffffffffffffffffffffffffffffffffffffff1673ffffffffffffffffffffffffffffffffffffffff16815260200190815260200160002060006101000a81548160ff0219169083151502179055508173ffffffffffffffffffffffffffffffffffffffff16610bd16118d0565b73ffffffffffffffffffffffffffffffffffffffff167f17307eab39ab6107e8899845ad3d59bd9653f200f220920489ca2b5937696c3183604051610c169190613476565b60405180910390a35050565b600a806000018054610c3390613b08565b80601f0160208091040260200160405190810160405280929190818152602001828054610c5f90613b08565b8015610cac5780601f10610c8157610100808354040283529160200191610cac565b820191906000526020600020905b815481529060010190602001808311610c8f57829003601f168201915b505050505090806001018054610cc190613b08565b80601f0160208091040260200160405190810160405280929190818152602001828054610ced90613b08565b8015610d3a5780601f10610d0f57610100808354040283529160200191610d3a565b820191906000526020600020905b815481529060010190602001808311610d1d57829003601f168201915b5050505050908060020154908060030154908060040154905085565b610d67610d616118d0565b83611991565b610da6576040517f08c379a0000000000000000000000000000000000000000000000000000000008152600401610d9d906137ef565b60405180910390fd5b610db284848484611ccb565b50505050565b60606000600860008481526020019081526020016000206040518060c001604052908160008201548152602001600182018054610df490613b08565b80601f0160208091040260200160405190810160405280929190818152602001828054610e2090613b08565b8015610e6d5780601f10610e4257610100808354040283529160200191610e6d565b820191906000526020600020905b815481529060010190602001808311610e5057829003601f168201915b50505050508152602001600282018054610e8690613b08565b80601f0160208091040260200160405190810160405280929190818152602001828054610eb290613b08565b8015610eff5780601f10610ed457610100808354040283529160200191610eff565b820191906000526020600020905b815481529060010190602001808311610ee257829003601f168201915b50505050508152602001600382015481526020016004820154815260200160058201548152505090506000610f378260600151611d27565b90506000610f488360800151611d27565b90506000610f598460a00151611d27565b90506000610f9f8560200151610f6e89611d27565b8760400151878787604051602001610f8b96959493929190613348565b604051602081830303815290604052611ed4565b9050600081604051602001610fb491906133ed565b6040516020818303038152906040529050809650505050505050919050565b6000600960003373ffffffffffffffffffffffffffffffffffffffff1673ffffffffffffffffffffffffffffffffffffffff16815260200190815260200160002054905060006008600083815260200190815260200160002090506110e66040518060600160405280603c8152602001613d74603c913982600101805461105990613b08565b80601f016020809104026020016040519081016040528092919081815260200182805461108590613b08565b80156110d25780601f106110a7576101008083540402835291602001916110d2565b820191906000526020600020905b8154815290600101906020018083116110b557829003601f168201915b505050505083600301548460050154612092565b6111be6040518060400160405280601b81526020017f426f73732025732068617320257320485020616e642025732041440000000000815250600a600001805461112f90613b08565b80601f016020809104026020016040519081016040528092919081815260200182805461115b90613b08565b80156111a85780601f1061117d576101008083540402835291602001916111a8565b820191906000526020600020905b81548152906001019060200180831161118b57829003601f168201915b5050505050600a60020154600a60040154612092565b6000816003015411611205576040517f08c379a00000000000000000000000000000000000000000000000000000000081526004016111fc9061374f565b60405180910390fd5b6000600a600201541161124d576040517f08c379a00000000000000000000000000000000000000000000000000000000081526004016112449061364f565b60405180910390fd5b8060050154600a60020154101561126e576000600a6002018190555061128d565b8060050154600a600201546112839190613a1e565b600a600201819055505b600a60040154816003015410156112ad57600081600301819055506112cb565b600a6004015481600301546112c29190613a1e565b81600301819055505b6112f1604051806060016040528060288152602001613d1e602891398260030154612134565b5050565b6000600560008473ffffffffffffffffffffffffffffffffffffffff1673ffffffffffffffffffffffffffffffffffffffff16815260200190815260200160002060008373ffffffffffffffffffffffffffffffffffffffff1673ffffffffffffffffffffffffffffffffffffffff16815260200190815260200160002060009054906101000a900460ff16905092915050565b600061139560066121d0565b90506113a133826121de565b6040518060c00160405280838152602001600784815481106113ec577f4e487b7100000000000000000000000000000000000000000000000000000000600052603260045260246000fd5b9060005260206000209060060201600101805461140890613b08565b80601f016020809104026020016040519081016040528092919081815260200182805461143490613b08565b80156114815780601f1061145657610100808354040283529160200191611481565b820191906000526020600020905b81548152906001019060200180831161146457829003601f168201915b50505050508152602001600784815481106114c5577f4e487b7100000000000000000000000000000000000000000000000000000000600052603260045260246000fd5b906000526020600020906006020160020180546114e190613b08565b80601f016020809104026020016040519081016040528092919081815260200182805461150d90613b08565b801561155a5780601f1061152f5761010080835404028352916020019161155a565b820191906000526020600020905b81548152906001019060200180831161153d57829003601f168201915b505050505081526020016007848154811061159e577f4e487b7100000000000000000000000000000000000000000000000000000000600052603260045260246000fd5b9060005260206000209060060201600301548152602001600784815481106115ef577f4e487b7100000000000000000000000000000000000000000000000000000000600052603260045260246000fd5b906000526020600020906006020160030154815260200160078481548110611640577f4e487b7100000000000000000000000000000000000000000000000000000000600052603260045260246000fd5b9060005260206000209060060201600501548152506008600083815260200190815260200160002060008201518160000155602082015181600101908051906020019061168e92919061269c565b5060408201518160020190805190602001906116ab92919061269c565b50606082015181600301556080820151816004015560a082015181600501559050506116f06040518060600160405280602e8152602001613d46602e913982846121fc565b80600960003373ffffffffffffffffffffffffffffffffffffffff1673ffffffffffffffffffffffffffffffffffffffff1681526020019081526020016000208190555061173e60066117e4565b5050565b6117de8484848460405160240161175c94939291906134b3565b6040516020818303038152906040527f8d142cdd000000000000000000000000000000000000000000000000000000007bffffffffffffffffffffffffffffffffffffffffffffffffffffffff19166020820180517bffffffffffffffffffffffffffffffffffffffffffffffffffffffff838183161783525050505061229b565b50505050565b6001816000016000828254019250508190555050565b60007f01ffc9a7000000000000000000000000000000000000000000000000000000007bffffffffffffffffffffffffffffffffffffffffffffffffffffffff1916827bffffffffffffffffffffffffffffffffffffffffffffffffffffffff1916149050919050565b60008073ffffffffffffffffffffffffffffffffffffffff166002600084815260200190815260200160002060009054906101000a900473ffffffffffffffffffffffffffffffffffffffff1673ffffffffffffffffffffffffffffffffffffffff1614159050919050565b600033905090565b816004600083815260200190815260200160002060006101000a81548173ffffffffffffffffffffffffffffffffffffffff021916908373ffffffffffffffffffffffffffffffffffffffff160217905550808273ffffffffffffffffffffffffffffffffffffffff1661194b83610741565b73ffffffffffffffffffffffffffffffffffffffff167f8c5be1e5ebec7d5bd14f71427d1e84f3dd0314c0f7b2291e5b200ac8c7c3b92560405160405180910390a45050565b600061199c82611864565b6119db576040517f08c379a00000000000000000000000000000000000000000000000000000000081526004016119d2906136cf565b60405180910390fd5b60006119e683610741565b90508073ffffffffffffffffffffffffffffffffffffffff168473ffffffffffffffffffffffffffffffffffffffff161480611a5557508373ffffffffffffffffffffffffffffffffffffffff16611a3d84610524565b73ffffffffffffffffffffffffffffffffffffffff16145b80611a665750611a6581856112f5565b5b91505092915050565b8273ffffffffffffffffffffffffffffffffffffffff16611a8f82610741565b73ffffffffffffffffffffffffffffffffffffffff1614611ae5576040517f08c379a0000000000000000000000000000000000000000000000000000000008152600401611adc906137af565b60405180910390fd5b600073ffffffffffffffffffffffffffffffffffffffff168273ffffffffffffffffffffffffffffffffffffffff161415611b55576040517f08c379a0000000000000000000000000000000000000000000000000000000008152600401611b4c9061368f565b60405180910390fd5b611b608383836122c4565b611b6b6000826118d8565b6001600360008573ffffffffffffffffffffffffffffffffffffffff1673ffffffffffffffffffffffffffffffffffffffff1681526020019081526020016000206000828254611bbb9190613a1e565b925050819055506001600360008473ffffffffffffffffffffffffffffffffffffffff1673ffffffffffffffffffffffffffffffffffffffff1681526020019081526020016000206000828254611c12919061393d565b92505081905550816002600083815260200190815260200160002060006101000a81548173ffffffffffffffffffffffffffffffffffffffff021916908373ffffffffffffffffffffffffffffffffffffffff160217905550808273ffffffffffffffffffffffffffffffffffffffff168473ffffffffffffffffffffffffffffffffffffffff167fddf252ad1be2c89b69c2b068fc378daa952ba7f163c4a11628f55a4df523b3ef60405160405180910390a4505050565b611cd6848484611a6f565b611ce2848484846122c9565b611d21576040517f08c379a0000000000000000000000000000000000000000000000000000000008152600401611d189061362f565b60405180910390fd5b50505050565b60606000821415611d6f576040518060400160405280600181526020017f30000000000000000000000000000000000000000000000000000000000000008152509050611ecf565b600082905060005b60008214611da1578080611d8a90613b3a565b915050600a82611d9a9190613993565b9150611d77565b60008167ffffffffffffffff811115611de3577f4e487b7100000000000000000000000000000000000000000000000000000000600052604160045260246000fd5b6040519080825280601f01601f191660200182016040528015611e155781602001600182028036833780820191505090505b5090505b60008514611ec857600182611e2e9190613a1e565b9150600a85611e3d9190613b83565b6030611e49919061393d565b60f81b818381518110611e85577f4e487b7100000000000000000000000000000000000000000000000000000000600052603260045260246000fd5b60200101907effffffffffffffffffffffffffffffffffffffffffffffffffffffffffffff1916908160001a905350600a85611ec19190613993565b9450611e19565b8093505050505b919050565b60606000825190506000811415611efd576040518060200160405280600081525091505061208d565b60006003600283611f0e919061393d565b611f189190613993565b6004611f2491906139c4565b90506000602082611f35919061393d565b67ffffffffffffffff811115611f74577f4e487b7100000000000000000000000000000000000000000000000000000000600052604160045260246000fd5b6040519080825280601f01601f191660200182016040528015611fa65781602001600182028036833780820191505090505b5090506000604051806060016040528060408152602001613cde604091399050600181016020830160005b8681101561204a5760038101905062ffffff818a015116603f8160121c168401518060081b905060ff603f83600c1c1686015116810190508060081b905060ff603f8360061c1686015116810190508060081b905060ff603f831686015116810190508060e01b90508084526004840193505050611fd1565b50600386066001811461206457600281146120745761207f565b613d3d60f01b600283035261207f565b603d60f81b60018303525b508484525050819450505050505b919050565b61212e848484846040516024016120ac949392919061350d565b6040516020818303038152906040527fd5cf17d0000000000000000000000000000000000000000000000000000000007bffffffffffffffffffffffffffffffffffffffffffffffffffffffff19166020820180517bffffffffffffffffffffffffffffffffffffffffffffffffffffffff838183161783525050505061229b565b50505050565b6121cc828260405160240161214a9291906135c1565b6040516020818303038152906040527f9710a9d0000000000000000000000000000000000000000000000000000000007bffffffffffffffffffffffffffffffffffffffffffffffffffffffff19166020820180517bffffffffffffffffffffffffffffffffffffffffffffffffffffffff838183161783525050505061229b565b5050565b600081600001549050919050565b6121f8828260405180602001604052806000815250612460565b5050565b612296838383604051602401612214939291906135f1565b6040516020818303038152906040527f969cdd03000000000000000000000000000000000000000000000000000000007bffffffffffffffffffffffffffffffffffffffffffffffffffffffff19166020820180517bffffffffffffffffffffffffffffffffffffffffffffffffffffffff838183161783525050505061229b565b505050565b60008151905060006a636f6e736f6c652e6c6f679050602083016000808483855afa5050505050565b505050565b60006122ea8473ffffffffffffffffffffffffffffffffffffffff166124bb565b15612453578373ffffffffffffffffffffffffffffffffffffffff1663150b7a026123136118d0565b8786866040518563ffffffff1660e01b8152600401612335949392919061342a565b602060405180830381600087803b15801561234f57600080fd5b505af192505050801561238057506040513d601f19601f8201168201806040525081019061237d91906129e0565b60015b612403573d80600081146123b0576040519150601f19603f3d011682016040523d82523d6000602084013e6123b5565b606091505b506000815114156123fb576040517f08c379a00000000000000000000000000000000000000000000000000000000081526004016123f29061362f565b60405180910390fd5b805181602001fd5b63150b7a0260e01b7bffffffffffffffffffffffffffffffffffffffffffffffffffffffff1916817bffffffffffffffffffffffffffffffffffffffffffffffffffffffff191614915050612458565b600190505b949350505050565b61246a83836124ce565b61247760008484846122c9565b6124b6576040517f08c379a00000000000000000000000000000000000000000000000000000000081526004016124ad9061362f565b60405180910390fd5b505050565b600080823b905060008111915050919050565b600073ffffffffffffffffffffffffffffffffffffffff168273ffffffffffffffffffffffffffffffffffffffff16141561253e576040517f08c379a00000000000000000000000000000000000000000000000000000000081526004016125359061376f565b60405180910390fd5b61254781611864565b15612587576040517f08c379a000000000000000000000000000000000000000000000000000000000815260040161257e9061366f565b60405180910390fd5b612593600083836122c4565b6001600360008473ffffffffffffffffffffffffffffffffffffffff1673ffffffffffffffffffffffffffffffffffffffff16815260200190815260200160002060008282546125e3919061393d565b92505081905550816002600083815260200190815260200160002060006101000a81548173ffffffffffffffffffffffffffffffffffffffff021916908373ffffffffffffffffffffffffffffffffffffffff160217905550808273ffffffffffffffffffffffffffffffffffffffff16600073ffffffffffffffffffffffffffffffffffffffff167fddf252ad1be2c89b69c2b068fc378daa952ba7f163c4a11628f55a4df523b3ef60405160405180910390a45050565b8280546126a890613b08565b90600052602060002090601f0160209004810192826126ca5760008555612711565b82601f106126e357805160ff1916838001178555612711565b82800160010185558215612711579182015b828111156127105782518255916020019190600101906126f5565b5b50905061271e9190612722565b5090565b5b8082111561273b576000816000905550600101612723565b5090565b600061275261274d846138ca565b613899565b90508281526020810184848401111561276a57600080fd5b612775848285613ac6565b509392505050565b60008135905061278c81613c81565b92915050565b6000813590506127a181613c98565b92915050565b6000813590506127b681613caf565b92915050565b6000815190506127cb81613caf565b92915050565b600082601f8301126127e257600080fd5b81356127f284826020860161273f565b91505092915050565b60008135905061280a81613cc6565b92915050565b60006020828403121561282257600080fd5b60006128308482850161277d565b91505092915050565b6000806040838503121561284c57600080fd5b600061285a8582860161277d565b925050602061286b8582860161277d565b9150509250929050565b60008060006060848603121561288a57600080fd5b60006128988682870161277d565b93505060206128a98682870161277d565b92505060406128ba868287016127fb565b9150509250925092565b600080600080608085870312156128da57600080fd5b60006128e88782880161277d565b94505060206128f98782880161277d565b935050604061290a878288016127fb565b925050606085013567ffffffffffffffff81111561292757600080fd5b612933878288016127d1565b91505092959194509250565b6000806040838503121561295257600080fd5b60006129608582860161277d565b925050602061297185828601612792565b9150509250929050565b6000806040838503121561298e57600080fd5b600061299c8582860161277d565b92505060206129ad858286016127fb565b9150509250929050565b6000602082840312156129c957600080fd5b60006129d7848285016127a7565b91505092915050565b6000602082840312156129f257600080fd5b6000612a00848285016127bc565b91505092915050565b600060208284031215612a1b57600080fd5b6000612a29848285016127fb565b91505092915050565b612a3b81613a52565b82525050565b612a4a81613a64565b82525050565b6000612a5b826138fa565b612a658185613910565b9350612a75818560208601613ad5565b612a7e81613c70565b840191505092915050565b6000612a9482613905565b612a9e8185613921565b9350612aae818560208601613ad5565b612ab781613c70565b840191505092915050565b6000612acd82613905565b612ad78185613932565b9350612ae7818560208601613ad5565b80840191505092915050565b6000612b00600b83613932565b91507f202d2d204e465420233a200000000000000000000000000000000000000000006000830152600b82019050919050565b6000612b40603283613921565b91507f4552433732313a207472616e7366657220746f206e6f6e20455243373231526560008301527f63656976657220696d706c656d656e74657200000000000000000000000000006020830152604082019050919050565b6000612ba6602883613921565b91507f4572726f723a20626f7373206d757374206861766520485020746f206174746160008301527f636b20626f73732e0000000000000000000000000000000000000000000000006020830152604082019050919050565b6000612c0c601c83613921565b91507f4552433732313a20746f6b656e20616c7265616479206d696e746564000000006000830152602082019050919050565b6000612c4c600e83613932565b91507f2c20226d61785f76616c7565223a0000000000000000000000000000000000006000830152600e82019050919050565b6000612c8c602483613921565b91507f4552433732313a207472616e7366657220746f20746865207a65726f2061646460008301527f72657373000000000000000000000000000000000000000000000000000000006020830152604082019050919050565b6000612cf2601983613921565b91507f4552433732313a20617070726f766520746f2063616c6c6572000000000000006000830152602082019050919050565b6000612d32602c83613921565b91507f4552433732313a206f70657261746f7220717565727920666f72206e6f6e657860008301527f697374656e7420746f6b656e00000000000000000000000000000000000000006020830152604082019050919050565b6000612d98603883613921565b91507f4552433732313a20617070726f76652063616c6c6572206973206e6f74206f7760008301527f6e6572206e6f7220617070726f76656420666f7220616c6c00000000000000006020830152604082019050919050565b6000612dfe602a83613921565b91507f4552433732313a2062616c616e636520717565727920666f7220746865207a6560008301527f726f2061646472657373000000000000000000000000000000000000000000006020830152604082019050919050565b6000612e64602983613921565b91507f4552433732313a206f776e657220717565727920666f72206e6f6e657869737460008301527f656e7420746f6b656e00000000000000000000000000000000000000000000006020830152604082019050919050565b6000612eca606483613932565b91507f222c20226465736372697074696f6e223a20225468697320697320616e204e4660008301527f542074686174206c6574732070656f706c6520706c617920696e20746865206760208301527f616d6520476f72696c6c617320767320416c69656e7321222c2022696d61676560408301527f223a2022000000000000000000000000000000000000000000000000000000006060830152606482019050919050565b6000612f7c602d83613921565b91507f4572726f723a20636861726163746572206d757374206861766520485020746f60008301527f2061747461636b20626f73732e000000000000000000000000000000000000006020830152604082019050919050565b6000612fe2600483613932565b91507f7d205d7d000000000000000000000000000000000000000000000000000000006000830152600482019050919050565b6000613022602083613921565b91507f4552433732313a206d696e7420746f20746865207a65726f20616464726573736000830152602082019050919050565b6000613062602c83613921565b91507f4552433732313a20617070726f76656420717565727920666f72206e6f6e657860008301527f697374656e7420746f6b656e00000000000000000000000000000000000000006020830152604082019050919050565b60006130c8602983613921565b91507f4552433732313a207472616e73666572206f6620746f6b656e2074686174206960008301527f73206e6f74206f776e00000000000000000000000000000000000000000000006020830152604082019050919050565b600061312e600a83613932565b91507f7b226e616d65223a2022000000000000000000000000000000000000000000006000830152600a82019050919050565b600061316e602183613921565b91507f4552433732313a20617070726f76616c20746f2063757272656e74206f776e6560008301527f72000000000000000000000000000000000000000000000000000000000000006020830152604082019050919050565b60006131d4601d83613932565b91507f646174613a6170706c69636174696f6e2f6a736f6e3b6261736536342c0000006000830152601d82019050919050565b6000613214603183613921565b91507f4552433732313a207472616e736665722063616c6c6572206973206e6f74206f60008301527f776e6572206e6f7220617070726f7665640000000000000000000000000000006020830152604082019050919050565b600061327a603d83613932565b91507f222c202261747472696275746573223a205b207b202274726169745f7479706560008301527f223a20224865616c746820506f696e7473222c202276616c7565223a200000006020830152603d82019050919050565b60006132e0602d83613932565b91507f7d2c207b202274726169745f74797065223a202241747461636b2044616d616760008301527f65222c202276616c7565223a20000000000000000000000000000000000000006020830152602d82019050919050565b61334281613abc565b82525050565b600061335382613121565b915061335f8289612ac2565b915061336a82612af3565b91506133768288612ac2565b915061338182612ebd565b915061338d8287612ac2565b91506133988261326d565b91506133a48286612ac2565b91506133af82612c3f565b91506133bb8285612ac2565b91506133c6826132d3565b91506133d28284612ac2565b91506133dd82612fd5565b9150819050979650505050505050565b60006133f8826131c7565b91506134048284612ac2565b915081905092915050565b60006020820190506134246000830184612a32565b92915050565b600060808201905061343f6000830187612a32565b61344c6020830186612a32565b6134596040830185613339565b818103606083015261346b8184612a50565b905095945050505050565b600060208201905061348b6000830184612a41565b92915050565b600060208201905081810360008301526134ab8184612a89565b905092915050565b600060808201905081810360008301526134cd8187612a89565b905081810360208301526134e18186612a89565b90506134f06040830185613339565b81810360608301526135028184612a89565b905095945050505050565b600060808201905081810360008301526135278187612a89565b9050818103602083015261353b8186612a89565b905061354a6040830185613339565b6135576060830184613339565b95945050505050565b600060a082019050818103600083015261357a8188612a89565b9050818103602083015261358e8187612a89565b905061359d6040830186613339565b6135aa6060830185613339565b6135b76080830184613339565b9695505050505050565b600060408201905081810360008301526135db8185612a89565b90506135ea6020830184613339565b9392505050565b6000606082019050818103600083015261360b8186612a89565b905061361a6020830185613339565b6136276040830184613339565b949350505050565b6000602082019050818103600083015261364881612b33565b9050919050565b6000602082019050818103600083015261366881612b99565b9050919050565b6000602082019050818103600083015261368881612bff565b9050919050565b600060208201905081810360008301526136a881612c7f565b9050919050565b600060208201905081810360008301526136c881612ce5565b9050919050565b600060208201905081810360008301526136e881612d25565b9050919050565b6000602082019050818103600083015261370881612d8b565b9050919050565b6000602082019050818103600083015261372881612df1565b9050919050565b6000602082019050818103600083015261374881612e57565b9050919050565b6000602082019050818103600083015261376881612f6f565b9050919050565b6000602082019050818103600083015261378881613015565b9050919050565b600060208201905081810360008301526137a881613055565b9050919050565b600060208201905081810360008301526137c8816130bb565b9050919050565b600060208201905081810360008301526137e881613161565b9050919050565b6000602082019050818103600083015261380881613207565b9050919050565b60006020820190506138246000830184613339565b92915050565b600060c08201905061383f6000830189613339565b81810360208301526138518188612a89565b905081810360408301526138658187612a89565b90506138746060830186613339565b6138816080830185613339565b61388e60a0830184613339565b979650505050505050565b6000604051905081810181811067ffffffffffffffff821117156138c0576138bf613c41565b5b8060405250919050565b600067ffffffffffffffff8211156138e5576138e4613c41565b5b601f19601f8301169050602081019050919050565b600081519050919050565b600081519050919050565b600082825260208201905092915050565b600082825260208201905092915050565b600081905092915050565b600061394882613abc565b915061395383613abc565b9250827fffffffffffffffffffffffffffffffffffffffffffffffffffffffffffffffff0382111561398857613987613bb4565b5b828201905092915050565b600061399e82613abc565b91506139a983613abc565b9250826139b9576139b8613be3565b5b828204905092915050565b60006139cf82613abc565b91506139da83613abc565b9250817fffffffffffffffffffffffffffffffffffffffffffffffffffffffffffffffff0483118215151615613a1357613a12613bb4565b5b828202905092915050565b6000613a2982613abc565b9150613a3483613abc565b925082821015613a4757613a46613bb4565b5b828203905092915050565b6000613a5d82613a9c565b9050919050565b60008115159050919050565b60007fffffffff0000000000000000000000000000000000000000000000000000000082169050919050565b600073ffffffffffffffffffffffffffffffffffffffff82169050919050565b6000819050919050565b82818337600083830152505050565b60005b83811015613af3578082015181840152602081019050613ad8565b83811115613b02576000848401525b50505050565b60006002820490506001821680613b2057607f821691505b60208210811415613b3457613b33613c12565b5b50919050565b6000613b4582613abc565b91507fffffffffffffffffffffffffffffffffffffffffffffffffffffffffffffffff821415613b7857613b77613bb4565b5b600182019050919050565b6000613b8e82613abc565b9150613b9983613abc565b925082613ba957613ba8613be3565b5b828206905092915050565b7f4e487b7100000000000000000000000000000000000000000000000000000000600052601160045260246000fd5b7f4e487b7100000000000000000000000000000000000000000000000000000000600052601260045260246000fd5b7f4e487b7100000000000000000000000000000000000000000000000000000000600052602260045260246000fd5b7f4e487b7100000000000000000000000000000000000000000000000000000000600052604160045260246000fd5b6000601f19601f8301169050919050565b613c8a81613a52565b8114613c9557600080fd5b50565b613ca181613a64565b8114613cac57600080fd5b50565b613cb881613a70565b8114613cc357600080fd5b50565b613ccf81613abc565b8114613cda57600080fd5b5056fe4142434445464748494a4b4c4d4e4f505152535455565758595a6162636465666768696a6b6c6d6e6f707172737475767778797a303132333435363738392b2f426f73732061747461636b656420706c617965722e204e657720706c617965722068703a2025730a4d696e746564204e465420772f20746f6b656e496420257320616e6420636861726163746572496e6465782025730a506c6179657220772f206368617261637465722025732061626f757420746f2061747461636b2e2048617320257320485020616e64202573204144a2646970667358221220a10f22f557658f8a3c945d8422d2f467be430fcd0319e300b4edd3c38bca1ef364736f6c63430008000033446f6e6520696e697469616c697a696e6720257320772f2048502025732c20696d67202573446f6e6520696e697469616c697a696e6720626f737320257320772f2048502025732c20696d67202573",
  "linkReferences": {},
  "deployedLinkReferences": {}
}